S00B000042434D2E7372656347
S11300000C9431000C944E000C944E000C944E0051
S11300100C944E000C948B030C944E000C944E00E4
S11300200C944E000C9462030C944E000C9439030F
S11300300C944E000C94C4050C949B050C9472050E
S11300400C944E000C944E000C944E000C944E00F4
S11300500C944E00710278027F0286028D02940293
S11300609B0211241FBECFE5D8E0DEBFCDBF10E058
S1130070A0E6B0E0EEE8F1E102C005900D92A03AEE
S1130080B107D9F721E0A0EAB0E001C01D92AA317E
S1130090B207E1F70E945A000C94C5080C940000C2
S11300A061E081E00E947301089562E081E00E94B2
S11300B073010895CF93DF9300D01F92CDB7DEB7BD
S11300C00E94010640E650E06BE170E080E00E948F
S11300D03F0640E650E06BE170E080E00E943F069E
S11300E081E089838FEF8A838B83CE0101960E94FE
S11300F0CA0040E06FEF81E00E942C010E94B30728
S113010041E065E070E080E590E00E94FE0741E098
S11301106AE070E085E590E00E94FE070E94B3006B
S113012080E00E94BE00789468E081E00E94730140
S11301300E94980668E081E00E94730160E181E01A
S11301400E9473010E942C0860E181E00E94730107
S113015060E281E00E9473010E94B80060E281E0E5
S11301600E947301E1CF81E08093A10080E00895B3
S113017085B7806885BF889580E008958093A00046
S113018085B78F7085BF95B78091A000892B85BFF7
S113019080E00895009709F457C0FC0122812223CE
S11301A019F02F3F59F152C0FC012081213071F028
S11301B028F0223099F02330C9F04AC02AB3FC0158
S11301C08181809582238ABB80E0089527B3FC0156
S11301D081818095822387BB80E0089524B3FC014C
S11301E081818095822384BB80E0089521B3FC0142
S11301F081818095822381BB80E00895FC01208168
S1130200213069F028F0223089F02330B1F022C087
S11302102AB3FC018181822B8ABB80E0089527B335
S1130220FC018181822B87BB80E0089524B3FC010B
S11302308181822B84BB80E0089521B3FC018181FC
S1130240822B81BB80E0089581E0089581E00895C8
S113025081E0089581E00895442319F04F3F09F1A6
S11302603CC0813061F028F0823079F0833099F01D
S113027036C08BB3609568236BBB80E0089588B368
S11302806095682368BB80E0089585B36095682312
S113029065BB80E0089582B36095682362BB80E00B
S11302A00895813059F028F0823069F0833081F06C
S11302B018C08BB3682B6BBB80E0089588B3682BA0
S11302C068BB80E0089585B3682B65BB80E0089522
S11302D082B3682B62BB80E0089581E0089581E0D9
S11302E0089581E00895813059F028F0823069F052
S11302F0833081F014C08BB368276BBB80E0089512
S113030088B3682768BB80E0089585B3682765BB18
S113031080E0089582B3682762BB80E0089581E09D
S11303200895CF93DF93EC018881813009F460C094
S113033020F0823009F4B8C00FC18C819D810097F0
S113034021F09093A3008093A20089818130B1F1C0
S113035018F08230D1F100C113BE8B818430C9F012
S113036028F4813041F0823069F0F6C08630C1F063
S11303708730E9F0F1C0A881B0E0A555BF4F81E016
S11303808C9329C0A881B0E0A555BF4F82E08C931F
S113039022C0A881B0E0A555BF4F83E08C931BC059
S11303A0A881B0E0A555BF4F84E08C9314C0A88108
S11303B0B0E0A555BF4F85E08C930DC0A881B0E097
S11303C0A555BF4F87E08C9306C0A881B0E0A55522
S11303D0BF4F86E08C938A81882339F0813009F0FD
S11303E0BBC089B7816089BFB7C089B789BFB4C0B2
S11303F08C819D81009721F09093A5008093A400A7
S113040089818130B9F118F08230D9F1A5C01FBCBF
S11304101EBC8B818430C9F028F4813041F08230D5
S113042069F09AC08630C1F08730E9F095C0A881A0
S1130430B0E0A555BF4F81E08C9329C0A881B0E0FE
S1130440A555BF4F82E08C9322C0A881B0E0A5558A
S1130450BF4F83E08C931BC0A881B0E0A555BF4F6C
S113046084E08C9314C0A881B0E0A555BF4F85E00B
S11304708C930DC0A881B0E0A555BF4F87E08C9345
S113048006C0A881B0E0A555BF4F86E08C938A8151
S1130490882339F0813009F05FC089B7846089BF4F
S11304A05BC089B789BF58C08C819D81009721F0BA
S11304B09093A7008093A6008981882321F083303C
S11304C008F04AC03EC015BC4B8150E04150510970
S11304D04730510508F040C0465D5F4FFA010C9467
S11304E0BF08A881B0E0A555BF4F81E08C9329C017
S11304F0A881B0E0A555BF4F82E08C9322C0A881AB
S1130500B0E0A555BF4F83E08C931BC0A881B0E039
S1130510A555BF4F84E08C9314C0A881B0E0A555C5
S1130520BF4F85E08C930DC0A881B0E0A555BF4FA7
S113053086E08C9306C0A881B0E0A555BF4F87E044
S11305408C938A81882331F0813031F489B78064B7
S113055089BF02C089B789BF81E0DF91CF91089537
S1130560813001F118F08230D1F14EC06F3F710536
S113057011F008F04BC09091AB00992309F448C0E6
S11305809650923038F412BE23B79091AB00922B60
S113059093BF32C0609562BF23B79091AB00922B9A
S11305A093BF2AC09091AC009923A1F19650923048
S11305B050F41DBC1CBC2EB53FB59091AC00292B4A
S11305C03FBD2EBD19C0609570957DBD6CBD2EB527
S11305D03FB59091AC00292B3FBD2EBD0DC06F3FA0
S11305E0710509F0C8F49091AD009923B9F06095B4
S11305F064BD25B5922B95BDE82FF0E0E855FF4F7B
S113060081E0808380E0089581E0089581E0089589
S113061081E0089581E0089581E0089581E00895DE
S1130620833008F5282F30E0F901E855FF4F908119
S11306309130D9F4813041F018F0823059F017C06C
S113064083B7887F83BF09C08EB59FB5887F9FBD60
S11306508EBD03C085B5887F85BDF901E855FF4F80
S1130660108280E0089581E0089581E0089581E09A
S113067008951F920F920FB60F9211242F933F9358
S11306804F935F936F937F938F939F93AF93BF9396
S1130690EF93FF93E091A200F091A300309709F04B
S11306A00995FF91EF91BF91AF919F918F917F91A8
S11306B06F915F914F913F912F910F900FBE0F90CB
S11306C01F9018951F920F920FB60F9211242F931B
S11306D03F934F935F936F937F938F939F93AF93C6
S11306E0BF93EF93FF93E091A400F091A50030979E
S11306F009F00995FF91EF91BF91AF919F918F916F
S11307007F916F915F914F913F912F910F900FBE09
S11307100F901F9018951F920F920FB60F921124ED
S11307202F933F934F935F936F937F938F939F93F5
S1130730AF93BF93EF93FF93E091A600F091A700CE
S1130740309709F00995FF91EF91BF91AF919F9177
S11307508F917F916F915F914F913F912F910F9066
S11307600FBE0F901F901895CF92DF92EF92FF92D9
S11307700F931F93CF93DF9300D000D000D0CDB759
S1130780DEB78C01009709F445C10F2EF3E0FF2E6C
S1130790F02DFC8282E08D838FEF8E83CE01049650
S11307A00E94CA00F98281E08A831B82CE010196ED
S11307B00E94CA00F80182859385009721F09093E6
S11307C0B4008093B300F80184859585009721F0E7
S11307D09093B2008093B100F801868597850097C5
S11307E021F09093B0008093AF00F80182818823B8
S11307F021F0813009F44DC00BC15998F80186816C
S11308009781A085B185880F991FAA1FBB1F880FE8
S1130810991FAA1FBB1F9C01AD01220F331F441F48
S1130820551F220F331F441F551F0F2EC12CF4E2F6
S1130830DF2EF4EFEF2EF12CF02DC701B6010E944C
S11308409D08215029B9F80186819781A085B18539
S1130850880F991FAA1FBB1F880F991FAA1FBB1FB0
S11308609C01AD01220F331F441F551F220F331F5C
S1130870441F551FC701B6010E949D08DA01C90132
S11308800197A109B109892F9A2FAB2FBB2780BDEE
S113089043C0599AF80186819781A085B185880F54
S11308A0991FAA1FBB1F880F991FAA1FBB1F9C015A
S11308B0AD01220F331F441F551F0F2EC12CF4E22C
S11308C0DF2EF4EFEF2EF12CF02DC701B6010E94BC
S11308D09D08215029B9F80186819781A085B185A9
S11308E0880F991FAA1FBB1F880F991FAA1FBB1F20
S11308F09C01AD01220F331F441F551FC701B601D0
S11309000E949D08DA01C9010197A109B109892F43
S11309109A2FAB2FBB2780BDF80181818130B1F0C4
S113092018F0823029F174C0F8018081882339F0ED
S1130930813009F06DC0569A8093AE0005C08AB12B
S11309408F718AB91092AE00539A28C0F801808141
S1130950882339F0813009F05BC0579A8093AE0048
S113096005C08AB18F718AB91092AE00549A16C02C
S1130970F8018081882351F0813009F049C08AB19F
S1130980806C8AB981E08093AE0005C08AB18F7112
S11309908AB91092AE008AB188618AB9F80184815B
S11309A0823029F0833039F0811132C007C080B51C
S11309B0806A80BD03C080B5806B80BDF8018381EF
S11309C0882329F0813021F580B5886880BDF8013D
S11309D08581823079F028F48823C1F0813031F0A8
S11309E017C0833059F0873069F012C080B582682F
S11309F080BD0CC080B5846880BD08C080B58668A1
S1130A0080BD04C080B5866880BD529A80E003C072
S1130A1081E001C081E026960FB6F894DEBF0FBED8
S1130A20CDBFDF91CF911F910F91FF90EF90DF9099
S1130A30CF9008951F93CF93DF9300D000D000D0C0
S1130A40CDB7DEB71092B4001092B3001092B2008A
S1130A501092B1001092B0001092AF001BB81AB8F7
S1130A6080E880BD10BC19B813E0198382E08A8342
S1130A701B82CE0101960E94CA001C8381E08D83F3
S1130A801E82CE0104960E94CA001092AE0080E03D
S1130A9026960FB6F894DEBF0FBECDBFDF91CF917F
S1130AA01F9108959091AE00992319F0913029F087
S1130AB005C05D9BFECF8CB901C08CB980E0089560
S1130AC02091AE00222319F0213039F009C05F9B38
S1130AD0FECF2CB1FC01208303C02CB1FC01208388
S1130AE080E008951F920F920FB60F9211242F9356
S1130AF03F934F935F936F937F938F939F93AF93A2
S1130B00BF93EF93FF93E091B300F091B40030975B
S1130B1009F00995FF91EF91BF91AF919F918F914A
S1130B207F916F915F914F913F912F910F900FBEE5
S1130B300F901F9018951F920F920FB60F921124C9
S1130B402F933F934F935F936F937F938F939F93D1
S1130B50AF93BF93EF93FF93E091AF00F091B00098
S1130B60309709F00995FF91EF91BF91AF919F9153
S1130B708F917F916F915F914F913F912F910F9042
S1130B800FBE0F901F9018951F920F920FB60F92E1
S1130B9011242F933F934F935F936F937F938F937E
S1130BA09F93AF93BF93EF93FF93E091B100F091C4
S1130BB0B200309709F00995FF91EF91BF91AF9181
S1130BC09F918F917F916F915F914F913F912F9161
S1130BD00F900FBE0F901F9018958091BF00813029
S1130BE019F483E08093BF00089587EB90E00E949E
S1130BF060058091BF00823019F484E08093BF00C7
S1130C00089580917B008130C1F51092C300109249
S1130C10C5001092C4001092C7001092C600109232
S1130C20C8008093C1001092BF001092BD001092C2
S1130C30BA001092B9001092B7001092B500109249
S1130C40C9001092CB001092CA001092CD001092ED
S1130C50CC001092CE008093C2001092C00010927B
S1130C60BE001092BC001092BB001092B80010920B
S1130C70B60010927B0084E6089587E60895CF932A
S1130C80DF93CDB7DEB760970FB6F894DEBF0FBE23
S1130C90CDBF90917B0091113DC08230E8F5282FA3
S1130CA030E0F901EF53FF4F90819130B9F588237B
S1130CB021F0813069F184E632C0F901EE0FFF1FA3
S1130CC0E20FF31FEE0FFF1FED53FF4F10827283ED
S1130CD06183548343831582F901E354FF4F1082E7
S1130CE0F901E154FF4F83E08083F901EF53FF4F93
S1130CF0108280E1E0E8F0E0DE01119601900D92AF
S1130D008A95E1F7CE0101960E94B40384E607C0F8
S1130D1080E705C086E603C089E601C08FE66096D9
S1130D200FB6F894DEBF0FBECDBFDF91CF9108950B
S1130D302F923F924F925F926F927F928F929F92E7
S1130D40AF92BF92CF92DF92EF92FF920F931F93D5
S1130D50CF93DF9300D000D0CDB7DEB780917B0076
S1130D608111DBC00F2EF1ECAF2EF0E0BF2EF02D81
S1130D700F2EFDEBCF2EF0E0DF2EF02D0F2EF3EC37
S1130D80EF2EF0E0FF2EF02D0FEB10E00F2EF9EB1D
S1130D908F2EF0E09F2EF02D0F2EF8EC4F2EF0E06A
S1130DA05F2EF02D0F2EF7EB6F2EF0E07F2EF02D3F
S1130DB00F2EF3EC2F2EF0E03F2EF02DBC82AB82F1
S1130DC0EB81FC81808181118BC0D8018C918330AF
S1130DD009F086C0D4012D913C91D70113968D91D1
S1130DE09C911497DC01A20FB31F8C91D3018C93B7
S1130DF0DA82C982D6019C91923039F128F4992380
S1130E0059F09130A9F06CC0943009F45AC048F1FB
S1130E109A3009F461C064C081E0E981FA81808379
S1130E20D7018C910E94520581E0F801808358C05B
S1130E30E2E0A981BA81EC93D70112968C910E94C9
S1130E40520581E0F80180834BC0E3E0D601EC93C6
S1130E50D70111968C910E94520581E0F80180839C
S1130E603FC0D70111964D915C91129741505109A1
S1130E702417350798F42F5F3F4FF4013183208303
S1130E80D2019C91980F9C9393E0E981FA8190831D
S1130E900E945205E1E0D801EC9322C02F5F3F4F3E
S1130EA0D4012D933C93F2019081980F9083E4E058
S1130EB0A981BA81EC930E945205E1E0D801EC9338
S1130EC00FC0EAE0A981BA81EC93D2018C910E940F
S1130ED05205F801108204C081E080830E941A0543
S1130EE0AB81BC811196BC83AB83BFEFCB1ADB0A09
S1130EF0E6E0EE0EF11C0F5F1F4FF2E08F0E911C27
S1130F0086E0480E511C9FEF691A790AAB81BC81B7
S1130F10A215B30509F054CF02C086E601C084E6E9
S1130F200F900F900F900F90DF91CF911F910F9121
S1130F30FF90EF90DF90CF90BF90AF909F908F90F5
S1130F407F906F905F904F903F902F9008956091A5
S1130F50170170911801809119010E94B00281E07B
S1130F60809316010895CF93DF9300D000D000D072
S1130F70CDB7DEB780917D008130B1F580917E00E0
S1130F80813041F018F0823051F00DC01982109276
S1130F90190109C081E089838093190104C082E0AA
S1130FA08983809319011A8281E08B8387E08C8383
S1130FB087EA97E09E838D83CE0101960E9491017A
S1130FC040917F0020E83EE3429FC001439F900D83
S1130FD01124892F86958695809317011092180104
S1130FE010927D0088E701C08BE726960FB6F8942F
S1130FF0DEBF0FBECDBFDF91CF91089520917D005C
S1131000211124C0009721F12091CF0037E0239FC4
S1131010F0011124E053FF4F118210827383628325
S11310209583848346832F5F2093CF0080917C0037
S1131030813081F460911701709118018091190138
S11310400E94B00210927C0088E708958AE7089510
S113105081E0089588E70895EF92FF920F931F931C
S1131060CF93DF9380917D0081115DC08091160143
S1131070813009F05AC08091CF00882309F448C018
S1131080F12C0F2EF7E0EF2EF02DCF2DD0E087E0DE
S1131090F89EF0011124E053FF4F80819181019665
S11310A091838083228133818217930749F58E01CE
S11310B0000F111F000F111F000F111F0C1B1D0B20
S11310C000531F4FD8011496ED91FC911597099583
S11310D0F801118210828681811112C08091CF00A3
S11310E0D80197E0899FF0011124E053FF4F9E2D12
S11310F001900D929A95E1F781508093CF00FA9474
S1131100F3948091CF00F81608F4BFCF811107C083
S1131110809119010E94100381E080937C00109259
S1131120160188E703C08AE701C088E7DF91CF9101
S11311301F910F91FF90EF900895A1E21A2EAA1B20
S1131140BB1BFD010DC0AA1FBB1FEE1FFF1FA21773
S1131150B307E407F50720F0A21BB30BE40BF50B70
S1131160661F771F881F991F1A9469F760957095F9
S1131170809590959B01AC01BD01CF010895EE0FC0
S1111180FF1F0590F491E02D0994F894FFCF21
S113118E4142434445464748494A4B4C4D4E4F50C5
S113119E5152535455565758595A000101010001E2
S11311AE01000000000380250000ED050000000092
S11311BE010100000003802500000000F505000079
S9030000FC
